{
  "_format": "hh-sol-artifact-1",
  "contractName": "Saygm",
  "sourceName": "contracts/saygm.sol",
  "abi": [
    {
      "anonymous": false,
      "inputs": [
        {
          "indexed": true,
          "internalType": "address",
          "name": "from",
          "type": "address"
        },
        {
          "indexed": false,
          "internalType": "string",
          "name": "answer",
          "type": "string"
        }
      ],
      "name": "NewAnswer",
      "type": "event"
    },
    {
      "anonymous": false,
      "inputs": [
        {
          "indexed": true,
          "internalType": "address",
          "name": "previousOwner",
          "type": "address"
        },
        {
          "indexed": true,
          "internalType": "address",
          "name": "newOwner",
          "type": "address"
        }
      ],
      "name": "OwnershipTransferred",
      "type": "event"
    },
    {
      "inputs": [
        {
          "internalType": "string",
          "name": "input",
          "type": "string"
        }
      ],
      "name": "answer",
      "outputs": [],
      "stateMutability": "nonpayable",
      "type": "function"
    },
    {
      "inputs": [],
      "name": "getAnswers",
      "outputs": [
        {
          "components": [
            {
              "internalType": "address",
              "name": "from",
              "type": "address"
            },
            {
              "internalType": "string",
              "name": "answer",
              "type": "string"
            }
          ],
          "internalType": "struct Saygm.Answer[]",
          "name": "",
          "type": "tuple[]"
        }
      ],
      "stateMutability": "view",
      "type": "function"
    },
    {
      "inputs": [],
      "name": "owner",
      "outputs": [
        {
          "internalType": "address",
          "name": "",
          "type": "address"
        }
      ],
      "stateMutability": "view",
      "type": "function"
    },
    {
      "inputs": [],
      "name": "prompt",
      "outputs": [
        {
          "internalType": "string",
          "name": "",
          "type": "string"
        }
      ],
      "stateMutability": "view",
      "type": "function"
    },
    {
      "inputs": [],
      "name": "renounceOwnership",
      "outputs": [],
      "stateMutability": "nonpayable",
      "type": "function"
    },
    {
      "inputs": [
        {
          "internalType": "string",
          "name": "newPrompt",
          "type": "string"
        }
      ],
      "name": "setPrompt",
      "outputs": [],
      "stateMutability": "nonpayable",
      "type": "function"
    },
    {
      "inputs": [],
      "name": "tip",
      "outputs": [],
      "stateMutability": "payable",
      "type": "function"
    },
    {
      "inputs": [],
      "name": "tips",
      "outputs": [
        {
          "internalType": "uint256",
          "name": "",
          "type": "uint256"
        }
      ],
      "stateMutability": "view",
      "type": "function"
    },
    {
      "inputs": [
        {
          "internalType": "address",
          "name": "newOwner",
          "type": "address"
        }
      ],
      "name": "transferOwnership",
      "outputs": [],
      "stateMutability": "nonpayable",
      "type": "function"
    },
    {
      "inputs": [],
      "name": "withdraw",
      "outputs": [],
      "stateMutability": "nonpayable",
      "type": "function"
    }
  ],
  "bytecode": "0x60806040526040518060400160405280600681526020017f53617920474d0000000000000000000000000000000000000000000000000000815250600190805190602001906200005192919062000152565b503480156200005f57600080fd5b5062000080620000746200008660201b60201c565b6200008e60201b60201c565b62000267565b600033905090565b60008060009054906101000a900473ffffffffffffffffffffffffffffffffffffffff169050816000806101000a81548173ffffffffffffffffffffffffffffffffffffffff021916908373ffffffffffffffffffffffffffffffffffffffff1602179055508173ffffffffffffffffffffffffffffffffffffffff168173ffffffffffffffffffffffffffffffffffffffff167f8be0079c531659141344cd1fd0a4f28419497f9722a3daafe3b4186f6b6457e060405160405180910390a35050565b828054620001609062000202565b90600052602060002090601f016020900481019282620001845760008555620001d0565b82601f106200019f57805160ff1916838001178555620001d0565b82800160010185558215620001d0579182015b82811115620001cf578251825591602001919060010190620001b2565b5b509050620001df9190620001e3565b5090565b5b80821115620001fe576000816000905550600101620001e4565b5090565b600060028204905060018216806200021b57607f821691505b6020821081141562000232576200023162000238565b5b50919050565b7f4e487b7100000000000000000000000000000000000000000000000000000000600052602260045260246000fd5b610f2880620002776000396000f3fe6080604052600436106100915760003560e01c80638da5cb5b116100595780638da5cb5b14610124578063b2a4a50e1461014f578063b4ac024f14610178578063c793fcf9146101a1578063f2fde38b146101cc57610091565b80631a4e1e78146100965780632755cd2d146100c15780633ccfd60b146100cb578063715018a6146100e25780637c65d711146100f9575b600080fd5b3480156100a257600080fd5b506100ab6101f5565b6040516100b89190610bb7565b60405180910390f35b6100c96101fb565b005b3480156100d757600080fd5b506100e0610211565b005b3480156100ee57600080fd5b506100f7610262565b005b34801561010557600080fd5b5061010e610276565b60405161011b9190610b55565b60405180910390f35b34801561013057600080fd5b50610139610304565b6040516101469190610b18565b60405180910390f35b34801561015b57600080fd5b506101766004803603810190610171919061092c565b61032d565b005b34801561018457600080fd5b5061019f600480360381019061019a919061092c565b6103ec565b005b3480156101ad57600080fd5b506101b661041c565b6040516101c39190610b33565b60405180910390f35b3480156101d857600080fd5b506101f360048036038101906101ee9190610903565b610563565b005b60035481565b346003546102099190610c8e565b600381905550565b6102196105e7565b3373ffffffffffffffffffffffffffffffffffffffff166108fc479081150290604051600060405180830381858888f1935050505015801561025f573d6000803e3d6000fd5b50565b61026a6105e7565b6102746000610665565b565b6001805461028390610d62565b80601f01602080910402602001604051908101604052809291908181526020018280546102af90610d62565b80156102fc5780601f106102d1576101008083540402835291602001916102fc565b820191906000526020600020905b8154815290600101906020018083116102df57829003601f168201915b505050505081565b60008060009054906101000a900473ffffffffffffffffffffffffffffffffffffffff16905090565b600260405180604001604052803373ffffffffffffffffffffffffffffffffffffffff16815260200183815250908060018154018082558091505060019003906000526020600020906002020160009091909190915060008201518160000160006101000a81548173ffffffffffffffffffffffffffffffffffffffff021916908373ffffffffffffffffffffffffffffffffffffffff16021790555060208201518160010190805190602001906103e6929190610731565b50505050565b6103f46105e7565b806001908051906020019061040a929190610731565b506002600061041991906107b7565b50565b60606002805480602002602001604051908101604052809291908181526020016000905b8282101561055a57838290600052602060002090600202016040518060400160405290816000820160009054906101000a900473ffffffffffffffffffffffffffffffffffffffff1673ffffffffffffffffffffffffffffffffffffffff1673ffffffffffffffffffffffffffffffffffffffff1681526020016001820180546104c990610d62565b80601f01602080910402602001604051908101604052809291908181526020018280546104f590610d62565b80156105425780601f1061051757610100808354040283529160200191610542565b820191906000526020600020905b81548152906001019060200180831161052557829003601f168201915b50505050508152505081526020019060010190610440565b50505050905090565b61056b6105e7565b600073ffffffffffffffffffffffffffffffffffffffff168173ffffffffffffffffffffffffffffffffffffffff1614156105db576040517f08c379a00000000000000000000000000000000000000000000000000000000081526004016105d290610b77565b60405180910390fd5b6105e481610665565b50565b6105ef610729565b73ffffffffffffffffffffffffffffffffffffffff1661060d610304565b73ffffffffffffffffffffffffffffffffffffffff1614610663576040517f08c379a000000000000000000000000000000000000000000000000000000000815260040161065a90610b97565b60405180910390fd5b565b60008060009054906101000a900473ffffffffffffffffffffffffffffffffffffffff169050816000806101000a81548173ffffffffffffffffffffffffffffffffffffffff021916908373ffffffffffffffffffffffffffffffffffffffff1602179055508173ffffffffffffffffffffffffffffffffffffffff168173ffffffffffffffffffffffffffffffffffffffff167f8be0079c531659141344cd1fd0a4f28419497f9722a3daafe3b4186f6b6457e060405160405180910390a35050565b600033905090565b82805461073d90610d62565b90600052602060002090601f01602090048101928261075f57600085556107a6565b82601f1061077857805160ff19168380011785556107a6565b828001600101855582156107a6579182015b828111156107a557825182559160200191906001019061078a565b5b5090506107b391906107db565b5090565b50805460008255600202906000526020600020908101906107d891906107f8565b50565b5b808211156107f45760008160009055506001016107dc565b5090565b5b8082111561084257600080820160006101000a81549073ffffffffffffffffffffffffffffffffffffffff02191690556001820160006108399190610846565b506002016107f9565b5090565b50805461085290610d62565b6000825580601f106108645750610883565b601f01602090049060005260206000209081019061088291906107db565b5b50565b600061089961089484610bf7565b610bd2565b9050828152602081018484840111156108b157600080fd5b6108bc848285610d20565b509392505050565b6000813590506108d381610edb565b92915050565b600082601f8301126108ea57600080fd5b81356108fa848260208601610886565b91505092915050565b60006020828403121561091557600080fd5b6000610923848285016108c4565b91505092915050565b60006020828403121561093e57600080fd5b600082013567ffffffffffffffff81111561095857600080fd5b610964848285016108d9565b91505092915050565b60006109798383610acc565b905092915050565b61098a81610ce4565b82525050565b61099981610ce4565b82525050565b60006109aa82610c38565b6109b48185610c5b565b9350836020820285016109c685610c28565b8060005b85811015610a0257848403895281516109e3858261096d565b94506109ee83610c4e565b925060208a019950506001810190506109ca565b50829750879550505050505092915050565b6000610a1f82610c43565b610a298185610c6c565b9350610a39818560208601610d2f565b610a4281610e52565b840191505092915050565b6000610a5882610c43565b610a628185610c7d565b9350610a72818560208601610d2f565b610a7b81610e52565b840191505092915050565b6000610a93602683610c7d565b9150610a9e82610e63565b604082019050919050565b6000610ab6602083610c7d565b9150610ac182610eb2565b602082019050919050565b6000604083016000830151610ae46000860182610981565b5060208301518482036020860152610afc8282610a14565b9150508091505092915050565b610b1281610d16565b82525050565b6000602082019050610b2d6000830184610990565b92915050565b60006020820190508181036000830152610b4d818461099f565b905092915050565b60006020820190508181036000830152610b6f8184610a4d565b905092915050565b60006020820190508181036000830152610b9081610a86565b9050919050565b60006020820190508181036000830152610bb081610aa9565b9050919050565b6000602082019050610bcc6000830184610b09565b92915050565b6000610bdc610bed565b9050610be88282610d94565b919050565b6000604051905090565b600067ffffffffffffffff821115610c1257610c11610e23565b5b610c1b82610e52565b9050602081019050919050565b6000819050602082019050919050565b600081519050919050565b600081519050919050565b6000602082019050919050565b600082825260208201905092915050565b600082825260208201905092915050565b600082825260208201905092915050565b6000610c9982610d16565b9150610ca483610d16565b9250827fffffffffffffffffffffffffffffffffffffffffffffffffffffffffffffffff03821115610cd957610cd8610dc5565b5b828201905092915050565b6000610cef82610cf6565b9050919050565b600073ffffffffffffffffffffffffffffffffffffffff82169050919050565b6000819050919050565b82818337600083830152505050565b60005b83811015610d4d578082015181840152602081019050610d32565b83811115610d5c576000848401525b50505050565b60006002820490506001821680610d7a57607f821691505b60208210811415610d8e57610d8d610df4565b5b50919050565b610d9d82610e52565b810181811067ffffffffffffffff82111715610dbc57610dbb610e23565b5b80604052505050565b7f4e487b7100000000000000000000000000000000000000000000000000000000600052601160045260246000fd5b7f4e487b7100000000000000000000000000000000000000000000000000000000600052602260045260246000fd5b7f4e487b7100000000000000000000000000000000000000000000000000000000600052604160045260246000fd5b6000601f19601f8301169050919050565b7f4f776e61626c653a206e6577206f776e657220697320746865207a65726f206160008201527f6464726573730000000000000000000000000000000000000000000000000000602082015250565b7f4f776e61626c653a2063616c6c6572206973206e6f7420746865206f776e6572600082015250565b610ee481610ce4565b8114610eef57600080fd5b5056fea2646970667358221220195e69ea8bdcf2d4fe603463774edc81e1952c03f94351656172e35d77d1c95e64736f6c63430008040033",
  "linkReferences": {},
  "deployedLinkReferences": {}
}